{
  "_format": "hh-sol-artifact-1",
  "contractName": "ICO",
  "sourceName": "contracts/ICO.sol",
  "abi": [
    {
      "inputs": [
        {
          "internalType": "address payable",
          "name": "_wallet",
          "type": "address"
        },
        {
          "internalType": "contract IERC20",
          "name": "_token",
          "type": "address"
        }
      ],
      "stateMutability": "nonpayable",
      "type": "constructor"
    },
    {
      "inputs": [
        {
          "internalType": "uint256",
          "name": "_amount",
          "type": "uint256"
        }
      ],
      "name": "amountOfTokens",
      "outputs": [
        {
          "internalType": "uint256",
          "name": "",
          "type": "uint256"
        }
      ],
      "stateMutability": "view",
      "type": "function"
    },
    {
      "inputs": [],
      "name": "amountRaised",
      "outputs": [
        {
          "internalType": "uint256",
          "name": "",
          "type": "uint256"
        }
      ],
      "stateMutability": "view",
      "type": "function"
    },
    {
      "inputs": [],
      "name": "finalsalePrice",
      "outputs": [
        {
          "internalType": "uint256",
          "name": "",
          "type": "uint256"
        }
      ],
      "stateMutability": "view",
      "type": "function"
    },
    {
      "inputs": [],
      "name": "getTokenPrice",
      "outputs": [
        {
          "internalType": "uint256",
          "name": "",
          "type": "uint256"
        }
      ],
      "stateMutability": "view",
      "type": "function"
    },
    {
      "inputs": [],
      "name": "presalePrice",
      "outputs": [
        {
          "internalType": "uint256",
          "name": "",
          "type": "uint256"
        }
      ],
      "stateMutability": "view",
      "type": "function"
    },
    {
      "inputs": [
        {
          "internalType": "address payable",
          "name": "_recepient",
          "type": "address"
        }
      ],
      "name": "purchase",
      "outputs": [],
      "stateMutability": "payable",
      "type": "function"
    },
    {
      "inputs": [],
      "name": "seedsalePrice",
      "outputs": [
        {
          "internalType": "uint256",
          "name": "",
          "type": "uint256"
        }
      ],
      "stateMutability": "view",
      "type": "function"
    },
    {
      "inputs": [],
      "name": "token",
      "outputs": [
        {
          "internalType": "contract IERC20",
          "name": "",
          "type": "address"
        }
      ],
      "stateMutability": "view",
      "type": "function"
    },
    {
      "inputs": [],
      "name": "token_price",
      "outputs": [
        {
          "internalType": "uint256",
          "name": "",
          "type": "uint256"
        }
      ],
      "stateMutability": "view",
      "type": "function"
    },
    {
      "inputs": [],
      "name": "token_spent",
      "outputs": [
        {
          "internalType": "uint256",
          "name": "",
          "type": "uint256"
        }
      ],
      "stateMutability": "view",
      "type": "function"
    },
    {
      "inputs": [],
      "name": "wallet",
      "outputs": [
        {
          "internalType": "address payable",
          "name": "",
          "type": "address"
        }
      ],
      "stateMutability": "view",
      "type": "function"
    }
  ],
  "bytecode": "0x6080604052600060035565434d77b6a000600455656d23ad5f8000600555657f544a44c000600655666a94d74f43000060085566b1a2bc2ec5000060095534801561004957600080fd5b50604051610aad380380610aad833981810160405281019061006b9190610161565b600073ffffffffffffffffffffffffffffffffffffffff168273ffffffffffffffffffffffffffffffffffffffff1614156100a557600080fd5b81600160006101000a81548173ffffffffffffffffffffffffffffffffffffffff021916908373ffffffffffffffffffffffffffffffffffffffff16021790555080600260006101000a81548173ffffffffffffffffffffffffffffffffffffffff021916908373ffffffffffffffffffffffffffffffffffffffff1602179055506004546007819055505050610221565b600081519050610146816101f3565b92915050565b60008151905061015b8161020a565b92915050565b6000806040838503121561017457600080fd5b600061018285828601610137565b92505060206101938582860161014c565b9150509250929050565b60006101a8826101d3565b9050919050565b60006101ba826101d3565b9050919050565b60006101cc8261019d565b9050919050565b600073ffffffffffffffffffffffffffffffffffffffff82169050919050565b6101fc816101af565b811461020757600080fd5b50565b610213816101c1565b811461021e57600080fd5b50565b61087d806102306000396000f3fe60806040526004361061009b5760003560e01c80637b3e5e7b116100645780637b3e5e7b1461017a5780637b4fd96e146101a55780638bd70c09146101d05780639a3c0e9c146101fb578063cefb94b914610226578063fc0c546a146102515761009b565b80620e7fa8146100a0578063081685a0146100cb57806325b31a97146101085780634b94f50e14610124578063521eb2731461014f575b600080fd5b3480156100ac57600080fd5b506100b561027c565b6040516100c29190610660565b60405180910390f35b3480156100d757600080fd5b506100f260048036038101906100ed919061059c565b610282565b6040516100ff9190610660565b60405180910390f35b610122600480360381019061011d919061054a565b6102a3565b005b34801561013057600080fd5b50610139610497565b6040516101469190610660565b60405180910390f35b34801561015b57600080fd5b506101646104a1565b6040516101719190610601565b60405180910390f35b34801561018657600080fd5b5061018f6104c7565b60405161019c9190610660565b60405180910390f35b3480156101b157600080fd5b506101ba6104cd565b6040516101c79190610660565b60405180910390f35b3480156101dc57600080fd5b506101e56104d3565b6040516101f29190610660565b60405180910390f35b34801561020757600080fd5b506102106104d9565b60405161021d9190610660565b60405180910390f35b34801561023257600080fd5b5061023b6104df565b6040516102489190610660565b60405180910390f35b34801561025d57600080fd5b506102666104e5565b6040516102739190610645565b60405180910390f35b60045481565b60008061028d610497565b9050808361029b91906106d1565b915050919050565b6000349050600073ffffffffffffffffffffffffffffffffffffffff168273ffffffffffffffffffffffffffffffffffffffff16141580156102e6575060008114155b6102ef57600080fd5b6102f7610497565b600781905550600061030882610282565b90508160008082825461031b919061067b565b92505081905550600260009054906101000a900473ffffffffffffffffffffffffffffffffffffffff1673ffffffffffffffffffffffffffffffffffffffff1663a9059cbb84836040518363ffffffff1660e01b815260040161037f92919061061c565b602060405180830381600087803b15801561039957600080fd5b505af11580156103ad573d6000803e3d6000fd5b505050506040513d601f19601f820116820180604052508101906103d19190610573565b5080600360008282546103e4919061067b565b92505081905550600160009054906101000a900473ffffffffffffffffffffffffffffffffffffffff1673ffffffffffffffffffffffffffffffffffffffff166108fc839081150290604051600060405180830381858888f19350505050158015610453573d6000803e3d6000fd5b506008546003541161046d57600454600781905550610492565b600954600354111561048757600654600781905550610491565b6005546007819055505b5b505050565b6000600754905090565b600160009054906101000a900473ffffffffffffffffffffffffffffffffffffffff1681565b60005481565b60075481565b60055481565b60035481565b60065481565b600260009054906101000a900473ffffffffffffffffffffffffffffffffffffffff1681565b60008135905061051a81610802565b92915050565b60008151905061052f81610819565b92915050565b60008135905061054481610830565b92915050565b60006020828403121561055c57600080fd5b600061056a8482850161050b565b91505092915050565b60006020828403121561058557600080fd5b600061059384828501610520565b91505092915050565b6000602082840312156105ae57600080fd5b60006105bc84828501610535565b91505092915050565b6105ce8161074a565b82525050565b6105dd81610702565b82525050565b6105ec8161075c565b82525050565b6105fb81610740565b82525050565b600060208201905061061660008301846105d4565b92915050565b600060408201905061063160008301856105c5565b61063e60208301846105f2565b9392505050565b600060208201905061065a60008301846105e3565b92915050565b600060208201905061067560008301846105f2565b92915050565b600061068682610740565b915061069183610740565b9250827fffffffffffffffffffffffffffffffffffffffffffffffffffffffffffffffff038211156106c6576106c56107a4565b5b828201905092915050565b60006106dc82610740565b91506106e783610740565b9250826106f7576106f66107d3565b5b828204905092915050565b600061070d82610720565b9050919050565b60008115159050919050565b600073ffffffffffffffffffffffffffffffffffffffff82169050919050565b6000819050919050565b600061075582610780565b9050919050565b60006107678261076e565b9050919050565b600061077982610720565b9050919050565b600061078b82610792565b9050919050565b600061079d82610720565b9050919050565b7f4e487b7100000000000000000000000000000000000000000000000000000000600052601160045260246000fd5b7f4e487b7100000000000000000000000000000000000000000000000000000000600052601260045260246000fd5b61080b81610702565b811461081657600080fd5b50565b61082281610714565b811461082d57600080fd5b50565b61083981610740565b811461084457600080fd5b5056fea2646970667358221220886c0cc0c75fc8abd205d3b86d39a04d20cc15433bf5dedc719f978cf45c1b7864736f6c63430008000033",
  "linkReferences": {},
  "deployedLinkReferences": {}
}